:020000040000FA
:100000000C9462000C948A000C948A000C948A0070
:100010000C948A000C948A000C948A000C948A0038
:100020000C948A000C948A000C948A000C948A0028
:100030000C948A000C948A000C948A000C948A0018
:100040000C94EC060C948A000C94BA060C9494065A
:100050000C948A000C948A000C948A000C948A00F8
:100060000C948A000C948A000000000023002600F3
:10007000290000000000240027002A0000000000E2
:10008000250028002B0004040404040404040202D4
:100090000202020203030303030301020408102007
:1000A0004080010204081020010204081020000012
:1000B0000008000201000003040700000000000027
:1000C00000000F0811241FBECFEFD8E0DEBFCDBF68
:1000D00011E0A0E0B1E0E2ECF2E102C005900D9287
:1000E000A831B107D9F727E0A8E1B1E001C01D921E
:1000F000A035B207E1F710E0C2E6D0E004C02197D6
:10010000FE010E945909C136D107C9F70E9436077E
:100110000C945F090C940000AF92BF92CF92DF92D3
:10012000EF92FF920F931F93CF93DF936C017B01AC
:100130008B01040F151FEB015E01AE18BF08C0173D
:10014000D10759F06991D601ED91FC910190F081B0
:10015000E02DC6010995892B79F7C501DF91CF9173
:100160001F910F91FF90EF90DF90CF90BF90AF90D5
:100170000895FC01538D448D252F30E0842F90E0AD
:10018000821B930B541710F0CF9608950197089592
:10019000FC01918D828D981761F0A28DAE0FBF2F5B
:1001A000B11D5D968C91928D9F5F9F73928F90E0B1
:1001B00008958FEF9FEF0895FC01918D828D981720
:1001C00031F0828DE80FF11D858D90E008958FEF5D
:1001D0009FEF0895FC01918D228D892F90E0805C26
:1001E0009F4F821B91098F739927089583EB96E0A7
:1001F0000E94EA0021E0892B09F420E0822F089573
:10020000FC01A48DA80FB92FB11DA35ABF4F2C918B
:10021000848D90E001968F739927848FA689B78982
:100220002C93A089B1898C91837080648C93938D79
:10023000848D981306C00288F389E02D80818F7D1C
:1002400080830895EF92FF920F931F93CF93DF93D4
:10025000EC0181E0888F9B8D8C8D98131AC0E88902
:10026000F989808185FF15C09FB7F894EE89FF89D1
:100270006083E889F98980818370806480839FBF6F
:1002800081E090E0DF91CF911F910F91FF90EF906F
:100290000895F62E0B8D10E00F5F1F4F0F7311277F
:1002A000E02E8C8D8E110CC00FB607FCFACFE889BA
:1002B000F989808185FFF5CFCE010E940001F1CF41
:1002C000EB8DEC0FFD2FF11DE35AFF4FF0829FB72E
:1002D000F8940B8FEA89FB8980818062CFCFCF931E
:1002E000DF93EC01888D8823B9F0AA89BB89E8895E
:1002F000F9898C9185FD03C0808186FD0DC00FB604
:1003000007FCF7CF8C9185FFF2CF808185FFEDCF81
:10031000CE010E940001E9CFDF91CF910895833093
:1003200081F028F4813099F08230A9F00895873067
:10033000A9F08830C9F08430B1F4809180008F7DBD
:1003400003C0809180008F7780938000089584B5EA
:100350008F7784BD089584B58F7DFBCF8091B000E9
:100360008F778093B00008958091B0008F7DF9CF92
:100370001F93CF93DF93282F30E0F901E255FF4F11
:100380008491F901E656FF4FD491F901EA57FF4FE6
:10039000C491CC23A9F0162F81110E948F01EC2F5C
:1003A000F0E0EE0FFF1FE458FF4FA591B4918FB717
:1003B000F894EC91111108C0D095DE23DC938FBF27
:1003C000DF91CF911F910895DE2BF8CFCF93DF936C
:1003D00090E0FC01E656FF4F24918A579F4FFC01A5
:1003E00084918823C9F090E0880F991FFC01EE5892
:1003F000FF4FA591B491FC01E458FF4FC591D491F2
:1004000061110DC09FB7F8948C91209582238C9335
:100410008881282328839FBFDF91CF910895623080
:1004200051F49FB7F8943C91822F809583238C934D
:10043000E8812E2BEFCF8FB7F894EC912E2B2C93D5
:100440008FBFEACF8E3008F08E5087708064809323
:100450007C0080917A00806480937A0080917A0099
:1004600086FDFCCF809178009091790008953FB788
:10047000F89480914D0490914E04A0914F04B09156
:10048000500426B5A89B05C02F3F19F00196A11D69
:10049000B11D3FBFBA2FA92F982F8827BC01CD01CE
:1004A000620F711D811D911D42E0660F771F881F2D
:1004B000991F4A95D1F708952FB7F8946091490490
:1004C00070914A0480914B0490914C042FBF089581
:1004D0008F929F92AF92BF92EF92FF920F931F93D2
:1004E000CF93DF937B018C01D0E0C0E00E945C02DF
:1004F0006093BB067093BC068093BD069093BE06C6
:1005000083EB96E00E94C80097FF27C00E945C0220
:100510008090BB069090BC06A090BD06B090BE0631
:10052000681979098A099B098090B7069090B806E6
:10053000A090B906B090BA06681579058A059B05A2
:10054000F8F2CE01DF91CF911F910F91FF90EF90C4
:10055000BF90AF909F908F900895F80181938F0185
:100560002196EC16FD0611F6ECCFCF92DF92EF92BA
:10057000FF920F931F93CF93C0E083EB96E00E940E
:10058000EA00892B79F0CC23C1F00E945C0297012C
:1005900086010C591F4F2F4F3F4F0617170728078B
:1005A000390778F483EB96E00E94EA00892BB9F0D2
:1005B00083EB96E00E94C800F5CF0E945C026B01BD
:1005C0007C0183EB96E00E94EA00C1E00697A8F266
:1005D00066E070E082E494E00E946802E3CFCF918D
:1005E0001F910F91FF90EF90DF90CF9008959C01A5
:1005F00033708827907C811540E4940739F1811588
:1006000040E8940739F1892B59F52130310549F13A
:100610002230310549F12330310549F124303105CB
:1006200049F12530310549F12031310549F12131B8
:10063000310549F12231310549F12331310549F1C3
:100640002431310549F190E080E00895C9018F5AC5
:100650009B4F0895C901880F991F8E5D9E4F089585
:10066000089581EB96E008958DEA96E008958BEA6F
:1006700096E0089589EA96E0089580E291E0089571
:100680008FEA96E008958EE191E008958CE191E083
:1006900008958AE191E0089588E191E00895FF923C
:1006A0000F931F93CF93DF93EC018B01FB01F0803D
:1006B0000E94E008F81621F06F2DCE010E94E80894
:1006C000F801F1802196CE010E94E008F81621F091
:1006D0006F2DCE010E94E808C801DF91CF911F91D4
:1006E0000F91FF900895CF93DF9300D0CDB7DEB781
:1006F00090E080E00E94E008898381E090E00E9421
:10070000E0088A8389819A810F900F90DF91CF91C1
:1007100008950F931F93CF93DF9301E514E0C8E58D
:10072000D2E0CE010E94E008F80181938F0121966A
:10073000C03BF4E0DF07A9F7DF91CF911F910F9144
:1007400008958F929F92AF92BF92CF92DF92EF92D5
:10075000FF920F931F93CF93DF93CDB7DEB7A3978D
:100760000FB6F894DEBF0FBECDBFDC01ED91FC915A
:100770003197E035F10508F087C08C01EE53FC4F4E
:100780000C9459093C04420457046404440474045E
:100790009004AC04C204D80408050F051C05230509
:1007A0002A052F0536056A0576058A0544044404A2
:1007B00044044404440444044404440444044404F9
:1007C00044044404440444044404440444044404E9
:1007D00044044404440444044404440444044404D9
:1007E00044048F05A405BC05E705500644044404F1
:1007F00044044404440444044404440444044404B9
:1008000044045606600663062B0470067C06120438
:100810004404440444044404440444044404440498
:1008200044047F0621E5E22E24E0F22E08E512E0E2
:10083000F701D1907F01C8010E94E008D81621F08D
:100840006D2DC8010E94E8080F5F1F4F003BF4E0C8
:100850001F0771F719C081E090E00E94E0088983CA
:1008600082E090E00E94E0088A8389819A819093D7
:10087000B0068093AF0608C081E090E09093AE068A
:100880008093AD060E94B502A3960FB6F894DEBF22
:100890000FBECDBFDF91CF911F910F91FF90EF90D1
:1008A000DF90CF90BF90AF909F908F900895FC0104
:1008B000828193810E94F702D80114962D913C9178
:1008C000FC0131832083E0CFDC0114968D919C9153
:1008D0000E94F7027C01F801828193810E94F70255
:1008E000D7012D913C91ECCFDC0112962D913C91DA
:1008F000E1E5F4E090E080E040815181452B51F446
:10090000428153814217530729F49093AC06809398
:10091000AB06BACF019636968436910569F7B4CF07
:10092000FC01828193810E94F7027C01D801149618
:100930008D919C910E94F702F70120813181DC01A9
:100940008D919C912817390709F49ECF8091AB06B1
:100950009091AC060196D9CFFC01828193810E94CF
:10096000F7027C01D80114968D919C910E94F702A8
:10097000F70120813181DC018D919C912817390785
:1009800028F782CFFC01828193810E94F7027C01CB
:10099000D80114968D919C910E94F702F701208155
:1009A0003181DC018D919C918217930778F26CCF95
:1009B000FC01828193810E94F702DC01CD90DC90E2
:1009C000F12CE12C0E9437024B015C01C114D104CF
:1009D000E104F10489F458CFB1E0CB1AD108E10861
:1009E000F108E8EE8E0EE3E09E1EA11CB11CC114BE
:1009F000D104E104F10451F30E9437026819790926
:100A00008A099B09683E73408105910528F7DECF6E
:100A10000E945C027093B0066093AF0635CF0E94CF
:100A20005C0228EE33E040E050E00E942809309359
:100A3000B0062093AF0628CF0E945C0220E63AEE73
:100A400040E050E0F2CF0E945C0220E83EEE46E338
:100A500050E0EBCF83EB96E00E94EA0008CF62E023
:100A600070E08FEA96E00E9468020ECFDC011296D9
:100A70008D919C910E94F702FC012081318150E010
:100A800040E019A28E010F5D1F4F9AE0C92ED12CB4
:100A9000E12CF12CCA01B901A70196010E94280995
:100AA000605DD8016E938D01211531054105510519
:100AB00089F7109709F4E8CEFD0101900020E9F7CD
:100AC0003197AF014A1B5B0BBD0183EB96E00E949F
:100AD0008C00DACEFC01828193810E94F702DC0156
:100AE0006C9183EB96E00E942201CECEFC018281C4
:100AF00093810E94F702DC016C9183EB96E00E94E7
:100B00002201F801828193810E94F702DC01119693
:100B10006C91E7CF41E050E066E171E0D6CFFC0197
:100B200024813581828161E02115310521F0213058
:100B3000310521F460E00E94E601A6CE62E0223099
:100B4000310509F0A1CEF7CFDC0114968D919C916F
:100B50000E94F702FC0120813181D80112968C910C
:100B600060E02115310529F061E02130310509F0FF
:100B70008BCE0E94B80188CEFC01228133813327BD
:100B8000F901E255FF4F8491F901E656FF4F0491B8
:100B9000F901EA57FF4F14911123B1F081110E941E
:100BA0008F01E12FF0E0EE0FFF1FE859FF4FA591F5
:100BB000B491EC910E2391E080E009F490E09093E1
:100BC000AF068093B00660CE90E080E0F8CFDC0105
:100BD00014968D919C910E94F702FC01E080F180B7
:100BE000D80112960D911C9161E0802F0E94E601C0
:100BF000E114F10419F460E0802FBBCFC701BFEF0F
:100C0000EB16F10419F010F08FEF90E0EFEFEE1615
:100C1000F10410F061E0F0CFF801FF27E255FF4F3B
:100C2000E491E33019F140F4E130B1F0E230C9F081
:100C3000803891057CF7DFCFE73011F1E83041F1E2
:100C4000E430B1F7209180002062209380009093DF
:100C50008B0080938A0018CE94B5906894BD87BDB0
:100C600013CE94B5906294BD88BD0ECE20918000C5
:100C7000206820938000909389008093880004CEA0
:100C80009091B00090689093B0008093B300FCCD39
:100C90009091B00090629093B0008093B400F4CD36
:100CA000DC0112968C910E942202E1CDE2E2F1E099
:100CB00082E494E0119211928E179F07D9F7E4CD48
:100CC0000E947303D4CDFC01828193819BA38AA3EC
:100CD000BE016E5D7F4F90E080E00E944F03D4CD57
:100CE000DC0112968D919C919A838983BE016F5F7E
:100CF0007F4F81E090E0F1CF0E948903C5CD0E9433
:100D0000880820E030E041E050E00E94F60882CE02
:100D10000E94B50282E494E00C94A1030E94F600C4
:100D200081110C94880608951F920F920FB60F92AE
:100D300011242F933F934F935F936F937F938F93E0
:100D40009F93AF93BF93EF93FF9383EB96E00E9443
:100D50000001FF91EF91BF91AF919F918F917F9192
:100D60006F915F914F913F912F910F900FBE0F9018
:100D70001F9018951F920F920FB60F9211242F9368
:100D80008F939F93EF93FF93E091C306F091C40676
:100D90008081E091C906F091CA0682FD1BC0908156
:100DA0008091CC068F5F8F732091CD06821741F022
:100DB000E091CC06F0E0ED54F94F958F8093CC068E
:100DC000FF91EF919F918F912F910F900FBE0F90F8
:100DD0001F9018958081F4CF1F920F920FB60F923B
:100DE00011242F933F938F939F93AF93BF93809141
:100DF000490490914A04A0914B04B0914C04309165
:100E0000480423E0230F2D3758F50196A11DB11D8D
:100E1000209348048093490490934A04A0934B0480
:100E2000B0934C0480914D0490914E04A0914F04D6
:100E3000B09150040196A11DB11D80934D04909373
:100E40004E04A0934F04B0935004BF91AF919F9173
:100E50008F913F912F910F900FBE0F901F9018957B
:100E600026E8230F0296A11DB11DD2CF789484B538
:100E7000826084BD84B5816084BD85B5826085BD96
:100E800085B5816085BD80916E00816080936E0024
:100E90001092810080918100826080938100809116
:100EA00081008160809381008091800081608093C7
:100EB00080008091B10084608093B1008091B00087
:100EC00081608093B00080917A00846080937A0082
:100ED00080917A00826080937A0080917A008160AC
:100EE00080937A0080917A00806880937A001092D3
:100EF000C100E091C306F091C40682E08083E091D6
:100F0000BF06F091C0061082E091C106F091C206C2
:100F10008FEC80831092CB06E091C706F091C80653
:100F200086E08083E091C506F091C60680818061ED
:100F30008083E091C506F091C60680818860808339
:100F4000E091C506F091C606808180688083E091BB
:100F5000C506F091C60680818F7D808380E00E9467
:100F60002202BC01990F880B990B6115710581054F
:100F7000910511F00E94D7080E947303EC01C27022
:100F8000DD2780FF0AC00E948903CD2B31F081E06C
:100F900090E09093B2068093B106C6E08091B106CE
:100FA0009091B206892BA1F11092B2061092B1066F
:100FB0001092B0061092AF061092AE061092AD06D7
:100FC0001092AC061092AB061092AA061092A906D7
:100FD0002091AB063091AC0624363105C8F48091DF
:100FE000AD069091AE06892B99F4C29FC001C39FB4
:100FF000900D11248F5A9B4F0E94A1038091AB0644
:101000009091AC0601969093AC068093AB06E0CF2E
:101010000E94F600882311F20E948806BFCFE3EBFE
:10102000F6E01382128288EE93E0A0E0B0E08483C1
:101030009583A683B78388E091E09183808385ECD4
:1010400090E09587848784EC90E09787868780EC92
:1010500090E0918B808B81EC90E0938B828B82EC83
:1010600090E0958B848B86EC90E0978B868B118E2D
:10107000128E138E148E08958F929F92AF92BF920C
:10108000CF92DF92EF92FF92CF93DF93EC016881D2
:1010900079818A819B81611571058105910521F412
:1010A00064E279ED8BE597E02DE133EF41E050E02C
:1010B0000E94F60849015A019B01AC01A7EAB1E47C
:1010C0000E9415096B017C01ACEEB4EFA5019401FF
:1010D0000E942309C60ED71EE81EF91EF7FE06C0A1
:1010E00081E0C81AD108E10880E8F80AC882D982EC
:1010F000EA82FB82C701B6019F77DF91CF91FF9013
:10110000EF90DF90CF90BF90AF909F908F90089519
:101110008F929F92AF92BF92CF92DF92EF92FF9207
:101120006091000170910101809102019091030191
:10113000611571058105910521F464E279ED8BE576
:1011400097E02DE133EF41E050E00E94F6084901BD
:101150005A019B01AC01A7EAB1E40E9415096B0199
:101160007C01ACEEB4EFA50194010E942309C60EE8
:10117000D71EE81EF91EF7FE06C081E0C81AD10886
:10118000E10880E8F80AC0920001D0920101E092E3
:101190000201F0920301C701B6019F77FF90EF9023
:1011A000DF90CF90BF90AF909F908F900895609305
:1011B000000170930101809302019093030108954F
:1011C000F999FECF92BD81BDF89A992780B508950F
:1011D000262FF999FECF1FBA92BD81BD20BD0FB653
:1011E000F894FA9AF99A0FBE01960895052E97FB86
:1011F0001EF400940E940D0957FD07D00E94280993
:1012000007FC03D04EF40C940D0950954095309591
:1012100021953F4F4F4F5F4F089590958095709562
:1012200061957F4F8F4F9F4F08950E944A09A59F58
:10123000900DB49F900DA49F800D911D11240895D1
:10124000B7FF0C9415090E941509821B930B089592
:10125000A1E21A2EAA1BBB1BFD010DC0AA1FBB1FBA
:10126000EE1FFF1FA217B307E407F50720F0A21B2C
:10127000B30BE40BF50B661F771F881F991F1A9499
:1012800069F760957095809590959B01AC01BD01C3
:10129000CF010895A29FB001B39FC001A39F700D1D
:1012A000811D1124911DB29F700D811D1124911D6E
:1012B0000895EE0FFF1F0590F491E02D0994F89426
:1012C000FFCF010000000000000022018C00B900E7
:0A12D0006F01EA00C800DC000A000C
:107E0000112484B714BE81FFF0D085E080938100F7
:107E100082E08093C00088E18093C10086E0809377
:107E2000C20080E18093C4008EE0C9D0259A86E02C
:107E300020E33CEF91E0309385002093840096BBD3
:107E4000B09BFECF1D9AA8958150A9F7CC24DD24C4
:107E500088248394B5E0AB2EA1E19A2EF3E0BF2EE7
:107E6000A2D0813461F49FD0082FAFD0023811F036
:107E7000013811F484E001C083E08DD089C08234E0
:107E800011F484E103C0853419F485E0A6D080C0E4
:107E9000853579F488D0E82EFF2485D0082F10E0AE
:107EA000102F00270E291F29000F111F8ED06801E7
:107EB0006FC0863521F484E090D080E0DECF843638
:107EC00009F040C070D06FD0082F6DD080E0C81688
:107ED00080E7D80618F4F601B7BEE895C0E0D1E017
:107EE00062D089930C17E1F7F0E0CF16F0E7DF06D8
:107EF00018F0F601B7BEE89568D007B600FCFDCFD4
:107F0000A601A0E0B1E02C9130E011968C91119780
:107F100090E0982F8827822B932B1296FA010C0160
:107F200087BEE89511244E5F5F4FF1E0A038BF0790
:107F300051F7F601A7BEE89507B600FCFDCF97BE46
:107F4000E89526C08437B1F42ED02DD0F82E2BD052
:107F50003CD0F601EF2C8F010F5F1F4F84911BD097
:107F6000EA94F801C1F70894C11CD11CFA94CF0C13
:107F7000D11C0EC0853739F428D08EE10CD085E9AC
:107F80000AD08FE07ACF813511F488E018D01DD067
:107F900080E101D065CF982F8091C00085FFFCCF94
:107FA0009093C60008958091C00087FFFCCF809118
:107FB000C00084FD01C0A8958091C6000895E0E648
:107FC000F0E098E1908380830895EDDF803219F02E
:107FD00088E0F5DFFFCF84E1DECF1F93182FE3DFCA
:107FE0001150E9F7F2DF1F91089580E0E8DFEE27F6
:047FF000FF270994CA
:027FFE00040479
:00000001FF
